{
  "contractName": "Asignatura",
  "abi": [
    {
      "inputs": [
        {
          "internalType": "string",
          "name": "_nombre",
          "type": "string"
        },
        {
          "internalType": "string",
          "name": "_curso",
          "type": "string"
        }
      ],
      "stateMutability": "nonpayable",
      "type": "constructor"
    },
    {
      "inputs": [
        {
          "internalType": "string",
          "name": "dni",
          "type": "string"
        }
      ],
      "name": "DNIDuplicadoError",
      "type": "error"
    },
    {
      "inputs": [
        {
          "internalType": "address",
          "name": "",
          "type": "address"
        },
        {
          "internalType": "uint256",
          "name": "",
          "type": "uint256"
        }
      ],
      "name": "calificacionesAlumno",
      "outputs": [
        {
          "internalType": "enum Asignatura.TipoNota",
          "name": "tipo",
          "type": "uint8"
        },
        {
          "internalType": "uint256",
          "name": "calificacion",
          "type": "uint256"
        }
      ],
      "stateMutability": "view",
      "type": "function",
      "constant": true
    },
    {
      "inputs": [
        {
          "internalType": "uint256",
          "name": "",
          "type": "uint256"
        },
        {
          "internalType": "address",
          "name": "",
          "type": "address"
        }
      ],
      "name": "calificacionesEvaluacion",
      "outputs": [
        {
          "internalType": "enum Asignatura.TipoNota",
          "name": "tipo",
          "type": "uint8"
        },
        {
          "internalType": "uint256",
          "name": "calificacion",
          "type": "uint256"
        }
      ],
      "stateMutability": "view",
      "type": "function",
      "constant": true
    },
    {
      "inputs": [],
      "name": "cerrada",
      "outputs": [
        {
          "internalType": "bool",
          "name": "",
          "type": "bool"
        }
      ],
      "stateMutability": "view",
      "type": "function",
      "constant": true
    },
    {
      "inputs": [],
      "name": "coordinador",
      "outputs": [
        {
          "internalType": "address",
          "name": "",
          "type": "address"
        }
      ],
      "stateMutability": "view",
      "type": "function",
      "constant": true
    },
    {
      "inputs": [],
      "name": "curso",
      "outputs": [
        {
          "internalType": "string",
          "name": "",
          "type": "string"
        }
      ],
      "stateMutability": "view",
      "type": "function",
      "constant": true
    },
    {
      "inputs": [
        {
          "internalType": "address",
          "name": "",
          "type": "address"
        }
      ],
      "name": "datosAlumno",
      "outputs": [
        {
          "internalType": "string",
          "name": "nombre",
          "type": "string"
        },
        {
          "internalType": "string",
          "name": "dni",
          "type": "string"
        },
        {
          "internalType": "string",
          "name": "email",
          "type": "string"
        }
      ],
      "stateMutability": "view",
      "type": "function",
      "constant": true
    },
    {
      "inputs": [
        {
          "internalType": "address",
          "name": "",
          "type": "address"
        }
      ],
      "name": "datosProfesor",
      "outputs": [
        {
          "internalType": "string",
          "name": "",
          "type": "string"
        }
      ],
      "stateMutability": "view",
      "type": "function",
      "constant": true
    },
    {
      "inputs": [
        {
          "internalType": "string",
          "name": "",
          "type": "string"
        }
      ],
      "name": "dniUsados",
      "outputs": [
        {
          "internalType": "address",
          "name": "",
          "type": "address"
        }
      ],
      "stateMutability": "view",
      "type": "function",
      "constant": true
    },
    {
      "inputs": [
        {
          "internalType": "uint256",
          "name": "",
          "type": "uint256"
        }
      ],
      "name": "evaluaciones",
      "outputs": [
        {
          "internalType": "string",
          "name": "nombre",
          "type": "string"
        },
        {
          "internalType": "uint256",
          "name": "fecha",
          "type": "uint256"
        },
        {
          "internalType": "uint256",
          "name": "porcentaje",
          "type": "uint256"
        },
        {
          "internalType": "uint256",
          "name": "minimo",
          "type": "uint256"
        }
      ],
      "stateMutability": "view",
      "type": "function",
      "constant": true
    },
    {
      "inputs": [
        {
          "internalType": "uint256",
          "name": "",
          "type": "uint256"
        }
      ],
      "name": "matriculas",
      "outputs": [
        {
          "internalType": "address",
          "name": "",
          "type": "address"
        }
      ],
      "stateMutability": "view",
      "type": "function",
      "constant": true
    },
    {
      "inputs": [],
      "name": "nombre",
      "outputs": [
        {
          "internalType": "string",
          "name": "",
          "type": "string"
        }
      ],
      "stateMutability": "view",
      "type": "function",
      "constant": true
    },
    {
      "inputs": [],
      "name": "owner",
      "outputs": [
        {
          "internalType": "address",
          "name": "",
          "type": "address"
        }
      ],
      "stateMutability": "view",
      "type": "function",
      "constant": true
    },
    {
      "inputs": [
        {
          "internalType": "uint256",
          "name": "",
          "type": "uint256"
        }
      ],
      "name": "profesores",
      "outputs": [
        {
          "internalType": "address",
          "name": "",
          "type": "address"
        }
      ],
      "stateMutability": "view",
      "type": "function",
      "constant": true
    },
    {
      "inputs": [],
      "name": "version",
      "outputs": [
        {
          "internalType": "string",
          "name": "",
          "type": "string"
        }
      ],
      "stateMutability": "view",
      "type": "function",
      "constant": true
    },
    {
      "stateMutability": "payable",
      "type": "receive",
      "payable": true
    },
    {
      "inputs": [
        {
          "internalType": "address",
          "name": "addr",
          "type": "address"
        }
      ],
      "name": "setCoordinador",
      "outputs": [],
      "stateMutability": "nonpayable",
      "type": "function"
    },
    {
      "inputs": [],
      "name": "cerrar",
      "outputs": [],
      "stateMutability": "nonpayable",
      "type": "function"
    },
    {
      "inputs": [
        {
          "internalType": "address",
          "name": "_addr",
          "type": "address"
        },
        {
          "internalType": "string",
          "name": "_nombre",
          "type": "string"
        }
      ],
      "name": "addProfesor",
      "outputs": [],
      "stateMutability": "nonpayable",
      "type": "function"
    },
    {
      "inputs": [],
      "name": "profesoresLength",
      "outputs": [
        {
          "internalType": "uint256",
          "name": "",
          "type": "uint256"
        }
      ],
      "stateMutability": "view",
      "type": "function",
      "constant": true
    },
    {
      "inputs": [
        {
          "internalType": "string",
          "name": "_nombre",
          "type": "string"
        },
        {
          "internalType": "string",
          "name": "_dni",
          "type": "string"
        },
        {
          "internalType": "string",
          "name": "_email",
          "type": "string"
        }
      ],
      "name": "automatricula",
      "outputs": [],
      "stateMutability": "nonpayable",
      "type": "function"
    },
    {
      "inputs": [
        {
          "internalType": "address",
          "name": "_addr",
          "type": "address"
        },
        {
          "internalType": "string",
          "name": "_nombre",
          "type": "string"
        },
        {
          "internalType": "string",
          "name": "_dni",
          "type": "string"
        },
        {
          "internalType": "string",
          "name": "_email",
          "type": "string"
        }
      ],
      "name": "matricular",
      "outputs": [],
      "stateMutability": "nonpayable",
      "type": "function"
    },
    {
      "inputs": [],
      "name": "matriculasLength",
      "outputs": [
        {
          "internalType": "uint256",
          "name": "",
          "type": "uint256"
        }
      ],
      "stateMutability": "view",
      "type": "function",
      "constant": true
    },
    {
      "inputs": [],
      "name": "quienSoy",
      "outputs": [
        {
          "internalType": "string",
          "name": "_nombre",
          "type": "string"
        },
        {
          "internalType": "string",
          "name": "_dni",
          "type": "string"
        },
        {
          "internalType": "string",
          "name": "_email",
          "type": "string"
        }
      ],
      "stateMutability": "view",
      "type": "function",
      "constant": true
    },
    {
      "inputs": [
        {
          "internalType": "string",
          "name": "_nombre",
          "type": "string"
        },
        {
          "internalType": "uint256",
          "name": "_fecha",
          "type": "uint256"
        },
        {
          "internalType": "uint256",
          "name": "_porcentaje",
          "type": "uint256"
        },
        {
          "internalType": "uint256",
          "name": "_minimo",
          "type": "uint256"
        }
      ],
      "name": "creaEvaluacion",
      "outputs": [
        {
          "internalType": "uint256",
          "name": "",
          "type": "uint256"
        }
      ],
      "stateMutability": "nonpayable",
      "type": "function"
    },
    {
      "inputs": [
        {
          "internalType": "uint256",
          "name": "_posicion",
          "type": "uint256"
        },
        {
          "internalType": "string",
          "name": "_nombre",
          "type": "string"
        },
        {
          "internalType": "uint256",
          "name": "_fecha",
          "type": "uint256"
        },
        {
          "internalType": "uint256",
          "name": "_porcentaje",
          "type": "uint256"
        },
        {
          "internalType": "uint256",
          "name": "_minimo",
          "type": "uint256"
        }
      ],
      "name": "editaEvaluacion",
      "outputs": [
        {
          "internalType": "uint256",
          "name": "",
          "type": "uint256"
        }
      ],
      "stateMutability": "nonpayable",
      "type": "function"
    },
    {
      "inputs": [],
      "name": "evaluacionesLength",
      "outputs": [
        {
          "internalType": "uint256",
          "name": "",
          "type": "uint256"
        }
      ],
      "stateMutability": "view",
      "type": "function",
      "constant": true
    },
    {
      "inputs": [
        {
          "internalType": "address",
          "name": "alumno",
          "type": "address"
        },
        {
          "internalType": "uint256",
          "name": "evaluacion",
          "type": "uint256"
        },
        {
          "internalType": "enum Asignatura.TipoNota",
          "name": "tipo",
          "type": "uint8"
        },
        {
          "internalType": "uint256",
          "name": "calificacion",
          "type": "uint256"
        }
      ],
      "name": "califica",
      "outputs": [],
      "stateMutability": "nonpayable",
      "type": "function"
    },
    {
      "inputs": [
        {
          "internalType": "uint256",
          "name": "evaluacion",
          "type": "uint256"
        }
      ],
      "name": "miNota",
      "outputs": [
        {
          "internalType": "enum Asignatura.TipoNota",
          "name": "tipo",
          "type": "uint8"
        },
        {
          "internalType": "uint256",
          "name": "calificacion",
          "type": "uint256"
        }
      ],
      "stateMutability": "view",
      "type": "function",
      "constant": true
    },
    {
      "inputs": [],
      "name": "miNotaFinal",
      "outputs": [
        {
          "internalType": "enum Asignatura.TipoNota",
          "name": "tipo",
          "type": "uint8"
        },
        {
          "internalType": "uint256",
          "name": "calificacion",
          "type": "uint256"
        }
      ],
      "stateMutability": "view",
      "type": "function",
      "constant": true
    },
    {
      "inputs": [
        {
          "internalType": "address",
          "name": "_addr",
          "type": "address"
        }
      ],
      "name": "notaFinal",
      "outputs": [
        {
          "internalType": "enum Asignatura.TipoNota",
          "name": "tipo",
          "type": "uint8"
        },
        {
          "internalType": "uint256",
          "name": "calificacion",
          "type": "uint256"
        }
      ],
      "stateMutability": "view",
      "type": "function",
      "constant": true
    }
  ],
  "bytecode": "0x60806040526040518060400160405280600981526020017f323032322046756c6c0000000000000000000000000000000000000000000000815250600090816200004a9190620003f3565b503480156200005857600080fd5b506040516200465f3803806200465f83398181016040528101906200007e91906200063e565b6000825103620000c5576040517f08c379a0000000000000000000000000000000000000000000000000000000008152600401620000bc906200074a565b60405180910390fd5b60008151036200010c576040517f08c379a00000000000000000000000000000000000000000000000000000000081526004016200010390620007e2565b60405180910390fd5b33600160006101000a81548173ffffffffffffffffffffffffffffffffffffffff021916908373ffffffffffffffffffffffffffffffffffffffff16021790555081600290816200015e9190620003f3565b508060039081620001709190620003f3565b50505062000804565b600081519050919050565b7f4e487b7100000000000000000000000000000000000000000000000000000000600052604160045260246000fd5b7f4e487b7100000000000000000000000000000000000000000000000000000000600052602260045260246000fd5b60006002820490506001821680620001fb57607f821691505b602082108103620002115762000210620001b3565b5b50919050565b60008190508160005260206000209050919050565b60006020601f8301049050919050565b600082821b905092915050565b6000600883026200027b7fffffffffffffffffffffffffffffffffffffffffffffffffffffffffffffffff826200023c565b6200028786836200023c565b95508019841693508086168417925050509392505050565b6000819050919050565b6000819050919050565b6000620002d4620002ce620002c8846200029f565b620002a9565b6200029f565b9050919050565b6000819050919050565b620002f083620002b3565b62000308620002ff82620002db565b84845462000249565b825550505050565b600090565b6200031f62000310565b6200032c818484620002e5565b505050565b5b8181101562000354576200034860008262000315565b60018101905062000332565b5050565b601f821115620003a3576200036d8162000217565b62000378846200022c565b8101602085101562000388578190505b620003a062000397856200022c565b83018262000331565b50505b505050565b600082821c905092915050565b6000620003c860001984600802620003a8565b1980831691505092915050565b6000620003e38383620003b5565b9150826002028217905092915050565b620003fe8262000179565b67ffffffffffffffff8111156200041a576200041962000184565b5b620004268254620001e2565b6200043382828562000358565b600060209050601f8311600181146200046b576000841562000456578287015190505b620004628582620003d5565b865550620004d2565b601f1984166200047b8662000217565b60005b82811015620004a5578489015182556001820191506020850194506020810190506200047e565b86831015620004c55784890151620004c1601f891682620003b5565b8355505b6001600288020188555050505b505050505050565b6000604051905090565b600080fd5b600080fd5b600080fd5b600080fd5b6000601f19601f8301169050919050565b6200051482620004f8565b810181811067ffffffffffffffff8211171562000536576200053562000184565b5b80604052505050565b60006200054b620004da565b905062000559828262000509565b919050565b600067ffffffffffffffff8211156200057c576200057b62000184565b5b6200058782620004f8565b9050602081019050919050565b60005b83811015620005b457808201518184015260208101905062000597565b60008484015250505050565b6000620005d7620005d1846200055e565b6200053f565b905082815260208101848484011115620005f657620005f5620004f3565b5b6200060384828562000594565b509392505050565b600082601f830112620006235762000622620004ee565b5b815162000635848260208601620005c0565b91505092915050565b60008060408385031215620006585762000657620004e4565b5b600083015167ffffffffffffffff811115620006795762000678620004e9565b5b62000687858286016200060b565b925050602083015167ffffffffffffffff811115620006ab57620006aa620004e9565b5b620006b9858286016200060b565b9150509250929050565b600082825260208201905092915050565b7f456c206e6f6d627265206465206c6120617369676e6174757261206e6f20707560008201527f6564652073657220766163696f00000000000000000000000000000000000000602082015250565b600062000732602d83620006c3565b91506200073f82620006d4565b604082019050919050565b60006020820190508181036000830152620007658162000723565b9050919050565b7f456c20637572736f2061636164656d69636f206465206c6120617369676e617460008201527f757261206e6f2070756564652073657220766163696f00000000000000000000602082015250565b6000620007ca603683620006c3565b9150620007d7826200076c565b604082019050919050565b60006020820190508181036000830152620007fd81620007bb565b9050919050565b613e4b80620008146000396000f3fe6080604052600436106101c65760003560e01c80636bf8aad6116100f7578063d00de47a11610095578063deafcc4111610064578063deafcc41146106df578063df62bede1461070a578063e6f2c31114610747578063f967f9861461078557610206565b8063d00de47a14610635578063d27c3f3c14610661578063d51b45841461069f578063dab6ff28146106c857610206565b80639e1d8f4b116100d15780639e1d8f4b14610565578063bc7b35b214610590578063c7918139146105bb578063c8373750146105f857610206565b80636bf8aad6146104d05780637810ff1e1461050f5780638da5cb5b1461053a57610206565b8063526a8ec6116101645780635aa4ffe61161013e5780635aa4ffe6146103ee578063641945bf1461042c578063645f701814610469578063681d4ca6146104a757610206565b8063526a8ec614610359578063537668831461039657806354fd4d50146103c357610206565b806330322c9b116101a057806330322c9b1461029c57806344f7a8cc146102c557806347ba31da14610305578063488cf4f51461032e57610206565b8063034856d71461020b5780631d2e4d2b1461024857806322c4e3941461027157610206565b36610206576040517f08c379a00000000000000000000000000000000000000000000000000000000081526004016101fd906127eb565b60405180910390fd5b600080fd5b34801561021757600080fd5b50610232600480360381019061022d919061299b565b6107b0565b60405161023f9190612a2d565b60405180910390f35b34801561025457600080fd5b5061026f600480360381019061026a9190612aa6565b610924565b005b34801561027d57600080fd5b50610286610b8a565b6040516102939190612b1d565b60405180910390f35b3480156102a857600080fd5b506102c360048036038101906102be9190612b5d565b610b9d565b005b3480156102d157600080fd5b506102ec60048036038101906102e79190612bc4565b610f20565b6040516102fc9493929190612c5f565b60405180910390f35b34801561031157600080fd5b5061032c60048036038101906103279190612cab565b610fe8565b005b34801561033a57600080fd5b50610343611123565b6040516103509190612a2d565b60405180910390f35b34801561036557600080fd5b50610380600480360381019061037b9190612d66565b611130565b60405161038d9190612dbe565b60405180910390f35b3480156103a257600080fd5b506103ab611179565b6040516103ba93929190612dd9565b60405180910390f35b3480156103cf57600080fd5b506103d86113e5565b6040516103e59190612e25565b60405180910390f35b3480156103fa57600080fd5b5061041560048036038101906104109190612e47565b611473565b604051610423929190612eeb565b60405180910390f35b34801561043857600080fd5b50610453600480360381019061044e9190612e47565b6115f2565b6040516104609190612e25565b60405180910390f35b34801561047557600080fd5b50610490600480360381019061048b9190612f14565b611692565b60405161049e929190612eeb565b60405180910390f35b3480156104b357600080fd5b506104ce60048036038101906104c99190612f54565b6116d0565b005b3480156104dc57600080fd5b506104f760048036038101906104f29190612e47565b61177a565b60405161050693929190612dd9565b60405180910390f35b34801561051b57600080fd5b5061052461193c565b6040516105319190612dbe565b60405180910390f35b34801561054657600080fd5b5061054f611962565b60405161055c9190612dbe565b60405180910390f35b34801561057157600080fd5b5061057a611988565b6040516105879190612a2d565b60405180910390f35b34801561059c57600080fd5b506105a5611995565b6040516105b29190612e25565b60405180910390f35b3480156105c757600080fd5b506105e260048036038101906105dd9190612bc4565b611a23565b6040516105ef9190612dbe565b60405180910390f35b34801561060457600080fd5b5061061f600480360381019061061a9190612bc4565b611a62565b60405161062c9190612dbe565b60405180910390f35b34801561064157600080fd5b5061064a611aa1565b604051610658929190612eeb565b60405180910390f35b34801561066d57600080fd5b5061068860048036038101906106839190612bc4565b611afd565b604051610696929190612eeb565b60405180910390f35b3480156106ab57600080fd5b506106c660048036038101906106c19190612e47565b611c47565b005b3480156106d457600080fd5b506106dd611d6b565b005b3480156106eb57600080fd5b506106f4611e18565b6040516107019190612e25565b60405180910390f35b34801561071657600080fd5b50610731600480360381019061072c9190612ffb565b611ea6565b60405161073e9190612a2d565b60405180910390f35b34801561075357600080fd5b5061076e60048036038101906107699190613092565b612002565b60405161077c929190612eeb565b60405180910390f35b34801561079157600080fd5b5061079a612040565b6040516107a79190612a2d565b60405180910390f35b6000600460009054906101000a900473ffffffffffffffffffffffffffffffffffffffff1673ffffffffffffffffffffffffffffffffffffffff163373ffffffffffffffffffffffffffffffffffffffff1614610842576040517f08c379a00000000000000000000000000000000000000000000000000000000081526004016108399061311e565b60405180910390fd5b6000855103610886576040517f08c379a000000000000000000000000000000000000000000000000000000000815260040161087d906131b0565b60405180910390fd5b600a604051806080016040528087815260200186815260200185815260200184815250908060018154018082558091505060019003906000526020600020906004020160009091909190915060008201518160000190816108e791906133dc565b5060208201518160010155604082015181600201556060820151816003015550506001600a8054905061091a91906134dd565b9050949350505050565b600160009054906101000a900473ffffffffffffffffffffffffffffffffffffffff1673ffffffffffffffffffffffffffffffffffffffff163373ffffffffffffffffffffffffffffffffffffffff16146109b4576040517f08c379a00000000000000000000000000000000000000000000000000000000081526004016109ab9061355d565b60405180910390fd5b600460149054906101000a900460ff1615610a04576040517f08c379a00000000000000000000000000000000000000000000000000000000081526004016109fb906135ef565b60405180910390fd5b6000600560008473ffffffffffffffffffffffffffffffffffffffff1673ffffffffffffffffffffffffffffffffffffffff1681526020019081526020016000208054610a50906131ff565b905014610a92576040517f08c379a0000000000000000000000000000000000000000000000000000000008152600401610a899061365b565b60405180910390fd5b6000815103610ad6576040517f08c379a0000000000000000000000000000000000000000000000000000000008152600401610acd906136c7565b60405180910390fd5b80600560008473ffffffffffffffffffffffffffffffffffffffff1673ffffffffffffffffffffffffffffffffffffffff1681526020019081526020016000209081610b2291906133dc565b506006829080600181540180825580915050600190039060005260206000200160009091909190916101000a81548173ffffffffffffffffffffffffffffffffffffffff021916908373ffffffffffffffffffffffffffffffffffffffff1602179055505050565b600460149054906101000a900460ff1681565b600460149054906101000a900460ff1615610bed576040517f08c379a0000000000000000000000000000000000000000000000000000000008152600401610be4906135ef565b60405180910390fd5b6000600560003373ffffffffffffffffffffffffffffffffffffffff1673ffffffffffffffffffffffffffffffffffffffff1681526020019081526020016000208054610c39906131ff565b80601f0160208091040260200160405190810160405280929190818152602001828054610c65906131ff565b8015610cb25780601f10610c8757610100808354040283529160200191610cb2565b820191906000526020600020905b815481529060010190602001808311610c9557829003601f168201915b505050505090506000815103610cfd576040517f08c379a0000000000000000000000000000000000000000000000000000000008152600401610cf490613733565b60405180910390fd5b610d068561204d565b610d45576040517f08c379a0000000000000000000000000000000000000000000000000000000008152600401610d3c906137c5565b60405180910390fd5b600a805490508410610d8c576040517f08c379a0000000000000000000000000000000000000000000000000000000008152600401610d8390613857565b60405180910390fd5b6103e8821115610dd1576040517f08c379a0000000000000000000000000000000000000000000000000000000008152600401610dc89061390f565b60405180910390fd5b60006040518060400160405280856002811115610df157610df0612e74565b5b815260200184815250905080600b60008873ffffffffffffffffffffffffffffffffffffffff1673ffffffffffffffffffffffffffffffffffffffff168152602001908152602001600020600087815260200190815260200160002060008201518160000160006101000a81548160ff02191690836002811115610e7857610e77612e74565b5b02179055506020820151816001015590505080600c600087815260200190815260200160002060008873ffffffffffffffffffffffffffffffffffffffff1673ffffffffffffffffffffffffffffffffffffffff16815260200190815260200160002060008201518160000160006101000a81548160ff02191690836002811115610f0657610f05612e74565b5b021790555060208201518160010155905050505050505050565b600a8181548110610f3057600080fd5b9060005260206000209060040201600091509050806000018054610f53906131ff565b80601f0160208091040260200160405190810160405280929190818152602001828054610f7f906131ff565b8015610fcc5780601f10610fa157610100808354040283529160200191610fcc565b820191906000526020600020905b815481529060010190602001808311610faf57829003601f168201915b5050505050908060010154908060020154908060030154905084565b600160009054906101000a900473ffffffffffffffffffffffffffffffffffffffff1673ffffffffffffffffffffffffffffffffffffffff163373ffffffffffffffffffffffffffffffffffffffff1614611078576040517f08c379a000000000000000000000000000000000000000000000000000000000815260040161106f9061355d565b60405180910390fd5b600460149054906101000a900460ff16156110c8576040517f08c379a00000000000000000000000000000000000000000000000000000000081526004016110bf906135ef565b60405180910390fd5b6110d18461204d565b15611111576040517f08c379a0000000000000000000000000000000000000000000000000000000008152600401611108906139a1565b60405180910390fd5b61111d8484848461212b565b50505050565b6000600a80549050905090565b6008818051602081018201805184825260208301602085012081835280955050505050506000915054906101000a900473ffffffffffffffffffffffffffffffffffffffff1681565b60608060606111873361204d565b6111c6576040517f08c379a00000000000000000000000000000000000000000000000000000000081526004016111bd90613a33565b60405180910390fd5b6000600760003373ffffffffffffffffffffffffffffffffffffffff1673ffffffffffffffffffffffffffffffffffffffff168152602001908152602001600020604051806060016040529081600082018054611222906131ff565b80601f016020809104026020016040519081016040528092919081815260200182805461124e906131ff565b801561129b5780601f106112705761010080835404028352916020019161129b565b820191906000526020600020905b81548152906001019060200180831161127e57829003601f168201915b505050505081526020016001820180546112b4906131ff565b80601f01602080910402602001604051908101604052809291908181526020018280546112e0906131ff565b801561132d5780601f106113025761010080835404028352916020019161132d565b820191906000526020600020905b81548152906001019060200180831161131057829003601f168201915b50505050508152602001600282018054611346906131ff565b80601f0160208091040260200160405190810160405280929190818152602001828054611372906131ff565b80156113bf5780601f10611394576101008083540402835291602001916113bf565b820191906000526020600020905b8154815290600101906020018083116113a257829003601f168201915b505050505081525050905080600001519350806020015192508060400151915050909192565b600080546113f2906131ff565b80601f016020809104026020016040519081016040528092919081815260200182805461141e906131ff565b801561146b5780601f106114405761010080835404028352916020019161146b565b820191906000526020600020905b81548152906001019060200180831161144e57829003601f168201915b505050505081565b6000806000600560003373ffffffffffffffffffffffffffffffffffffffff1673ffffffffffffffffffffffffffffffffffffffff16815260200190815260200160002080546114c2906131ff565b80601f01602080910402602001604051908101604052809291908181526020018280546114ee906131ff565b801561153b5780601f106115105761010080835404028352916020019161153b565b820191906000526020600020905b81548152906001019060200180831161151e57829003601f168201915b50505050509050600081511415806115a05750600460009054906101000a900473ffffffffffffffffffffffffffffffffffffffff1673ffffffffffffffffffffffffffffffffffffffff163373ffffffffffffffffffffffffffffffffffffffff16145b6115df576040517f08c379a00000000000000000000000000000000000000000000000000000000081526004016115d690613ac5565b60405180910390fd5b6115e884612466565b9250925050915091565b60056020528060005260406000206000915090508054611611906131ff565b80601f016020809104026020016040519081016040528092919081815260200182805461163d906131ff565b801561168a5780601f1061165f5761010080835404028352916020019161168a565b820191906000526020600020905b81548152906001019060200180831161166d57829003601f168201915b505050505081565b600b602052816000526040600020602052806000526040600020600091509150508060000160009054906101000a900460ff16908060010154905082565b6116d93361204d565b15611719576040517f08c379a000000000000000000000000000000000000000000000000000000000815260040161171090613b57565b60405180910390fd5b600460149054906101000a900460ff1615611769576040517f08c379a0000000000000000000000000000000000000000000000000000000008152600401611760906135ef565b60405180910390fd5b6117753384848461212b565b505050565b600760205280600052604060002060009150905080600001805461179d906131ff565b80601f01602080910402602001604051908101604052809291908181526020018280546117c9906131ff565b80156118165780601f106117eb57610100808354040283529160200191611816565b820191906000526020600020905b8154815290600101906020018083116117f957829003601f168201915b50505050509080600101805461182b906131ff565b80601f0160208091040260200160405190810160405280929190818152602001828054611857906131ff565b80156118a45780601f10611879576101008083540402835291602001916118a4565b820191906000526020600020905b81548152906001019060200180831161188757829003601f168201915b5050505050908060020180546118b9906131ff565b80601f01602080910402602001604051908101604052809291908181526020018280546118e5906131ff565b80156119325780601f1061190757610100808354040283529160200191611932565b820191906000526020600020905b81548152906001019060200180831161191557829003601f168201915b5050505050905083565b600460009054906101000a900473ffffffffffffffffffffffffffffffffffffffff1681565b600160009054906101000a900473ffffffffffffffffffffffffffffffffffffffff1681565b6000600980549050905090565b600280546119a2906131ff565b80601f01602080910402602001604051908101604052809291908181526020018280546119ce906131ff565b8015611a1b5780601f106119f057610100808354040283529160200191611a1b565b820191906000526020600020905b8154815290600101906020018083116119fe57829003601f168201915b505050505081565b60098181548110611a3357600080fd5b906000526020600020016000915054906101000a900473ffffffffffffffffffffffffffffffffffffffff1681565b60068181548110611a7257600080fd5b906000526020600020016000915054906101000a900473ffffffffffffffffffffffffffffffffffffffff1681565b600080611aad3361204d565b611aec576040517f08c379a0000000000000000000000000000000000000000000000000000000008152600401611ae390613a33565b60405180910390fd5b611af533612466565b915091509091565b600080611b093361204d565b611b48576040517f08c379a0000000000000000000000000000000000000000000000000000000008152600401611b3f90613a33565b60405180910390fd5b600a805490508310611b8f576040517f08c379a0000000000000000000000000000000000000000000000000000000008152600401611b8690613be9565b60405180910390fd5b6000600b60003373ffffffffffffffffffffffffffffffffffffffff1673ffffffffffffffffffffffffffffffffffffffff16815260200190815260200160002060008581526020019081526020016000206040518060400160405290816000820160009054906101000a900460ff166002811115611c1157611c10612e74565b5b6002811115611c2357611c22612e74565b5b81526020016001820154815250509050806000015192508060200151915050915091565b600160009054906101000a900473ffffffffffffffffffffffffffffffffffffffff1673ffffffffffffffffffffffffffffffffffffffff163373ffffffffffffffffffffffffffffffffffffffff1614611cd7576040517f08c379a0000000000000000000000000000000000000000000000000000000008152600401611cce9061355d565b60405180910390fd5b600460149054906101000a900460ff1615611d27576040517f08c379a0000000000000000000000000000000000000000000000000000000008152600401611d1e906135ef565b60405180910390fd5b80600460006101000a81548173ffffffffffffffffffffffffffffffffffffffff021916908373ffffffffffffffffffffffffffffffffffffffff16021790555050565b600460009054906101000a900473ffffffffffffffffffffffffffffffffffffffff1673ffffffffffffffffffffffffffffffffffffffff163373ffffffffffffffffffffffffffffffffffffffff1614611dfb576040517f08c379a0000000000000000000000000000000000000000000000000000000008152600401611df29061311e565b60405180910390fd5b6001600460146101000a81548160ff021916908315150217905550565b60038054611e25906131ff565b80601f0160208091040260200160405190810160405280929190818152602001828054611e51906131ff565b8015611e9e5780601f10611e7357610100808354040283529160200191611e9e565b820191906000526020600020905b815481529060010190602001808311611e8157829003601f168201915b505050505081565b6000600460009054906101000a900473ffffffffffffffffffffffffffffffffffffffff1673ffffffffffffffffffffffffffffffffffffffff163373ffffffffffffffffffffffffffffffffffffffff1614611f38576040517f08c379a0000000000000000000000000000000000000000000000000000000008152600401611f2f9061311e565b60405180910390fd5b6000855103611f7c576040517f08c379a0000000000000000000000000000000000000000000000000000000008152600401611f73906131b0565b60405180910390fd5b604051806080016040528086815260200185815260200184815260200183815250600a8781548110611fb157611fb0613c09565b5b90600052602060002090600402016000820151816000019081611fd491906133dc565b5060208201518160010155604082015181600201556060820151816003015590505085905095945050505050565b600c602052816000526040600020602052806000526040600020600091509150508060000160009054906101000a900460ff16908060010154905082565b6000600680549050905090565b600080600760008473ffffffffffffffffffffffffffffffffffffffff1673ffffffffffffffffffffffffffffffffffffffff168152602001908152602001600020600001805461209d906131ff565b80601f01602080910402602001604051908101604052809291908181526020018280546120c9906131ff565b80156121165780601f106120eb57610100808354040283529160200191612116565b820191906000526020600020905b8154815290600101906020018083116120f957829003601f168201915b50505050509050600081511415915050919050565b6121343361204d565b15612174576040517f08c379a000000000000000000000000000000000000000000000000000000000815260040161216b90613b57565b60405180910390fd5b600460149054906101000a900460ff16156121c4576040517f08c379a00000000000000000000000000000000000000000000000000000000081526004016121bb906135ef565b60405180910390fd5b6000835103612208576040517f08c379a00000000000000000000000000000000000000000000000000000000081526004016121ff906136c7565b60405180910390fd5b600082510361224c576040517f08c379a000000000000000000000000000000000000000000000000000000000815260040161224390613c84565b60405180910390fd5b600073ffffffffffffffffffffffffffffffffffffffff166008836040516122749190613ce0565b908152602001604051809103902060009054906101000a900473ffffffffffffffffffffffffffffffffffffffff1673ffffffffffffffffffffffffffffffffffffffff16146122fb57816040517f96ac92d10000000000000000000000000000000000000000000000000000000081526004016122f29190612e25565b60405180910390fd5b6000604051806060016040528085815260200184815260200183815250905080600760008773ffffffffffffffffffffffffffffffffffffffff1673ffffffffffffffffffffffffffffffffffffffff168152602001908152602001600020600082015181600001908161236f91906133dc565b50602082015181600101908161238591906133dc565b50604082015181600201908161239b91906133dc565b50905050846008846040516123b09190613ce0565b908152602001604051809103902060006101000a81548173ffffffffffffffffffffffffffffffffffffffff021916908373ffffffffffffffffffffffffffffffffffffffff1602179055506009859080600181540180825580915050600190039060005260206000200160009091909190916101000a81548173ffffffffffffffffffffffffffffffffffffffff021916908373ffffffffffffffffffffffffffffffffffffffff1602179055505050505050565b6000806001915060005b600a805490508110156125be576000600281111561249157612490612e74565b5b600b60008673ffffffffffffffffffffffffffffffffffffffff1673ffffffffffffffffffffffffffffffffffffffff168152602001908152602001600020600083815260200190815260200160002060000160009054906101000a900460ff16600281111561250457612503612e74565b5b03612516576000809250925050612763565b60028081111561252957612528612e74565b5b600b60008673ffffffffffffffffffffffffffffffffffffffff1673ffffffffffffffffffffffffffffffffffffffff168152602001908152602001600020600083815260200190815260200160002060000160009054906101000a900460ff16600281111561259c5761259b612e74565b5b036125aa57600292506125ab565b5b80806125b690613cf7565b915050612470565b50600160028111156125d3576125d2612e74565b5b8260028111156125e6576125e5612e74565b5b036125f75781600091509150612763565b60008060005b600a8054905081101561273f57600a818154811061261e5761261d613c09565b5b906000526020600020906004020160030154600b60008873ffffffffffffffffffffffffffffffffffffffff1673ffffffffffffffffffffffffffffffffffffffff168152602001908152602001600020600083815260200190815260200160002060010154101561268f57600192505b6064600a82815481106126a5576126a4613c09565b5b906000526020600020906004020160020154600b60008973ffffffffffffffffffffffffffffffffffffffff1673ffffffffffffffffffffffffffffffffffffffff1681526020019081526020016000206000848152602001908152602001600020600101546127159190613d3f565b61271f9190613db0565b8261272a9190613de1565b9150808061273790613cf7565b9150506125fd565b5081801561274e57506101f381115b15612759576101f390505b6002935080925050505b915091565b600082825260208201905092915050565b7f4e6f207365207065726d697465206c6120726563657063696f6e20646520646960008201527f6e65726f2e000000000000000000000000000000000000000000000000000000602082015250565b60006127d5602583612768565b91506127e082612779565b604082019050919050565b60006020820190508181036000830152612804816127c8565b9050919050565b6000604051905090565b600080fd5b600080fd5b600080fd5b600080fd5b6000601f19601f8301169050919050565b7f4e487b7100000000000000000000000000000000000000000000000000000000600052604160045260246000fd5b61287282612829565b810181811067ffffffffffffffff821117156128915761289061283a565b5b80604052505050565b60006128a461280b565b90506128b08282612869565b919050565b600067ffffffffffffffff8211156128d0576128cf61283a565b5b6128d982612829565b9050602081019050919050565b82818337600083830152505050565b6000612908612903846128b5565b61289a565b90508281526020810184848401111561292457612923612824565b5b61292f8482856128e6565b509392505050565b600082601f83011261294c5761294b61281f565b5b813561295c8482602086016128f5565b91505092915050565b6000819050919050565b61297881612965565b811461298357600080fd5b50565b6000813590506129958161296f565b92915050565b600080600080608085870312156129b5576129b4612815565b5b600085013567ffffffffffffffff8111156129d3576129d261281a565b5b6129df87828801612937565b94505060206129f087828801612986565b9350506040612a0187828801612986565b9250506060612a1287828801612986565b91505092959194509250565b612a2781612965565b82525050565b6000602082019050612a426000830184612a1e565b92915050565b600073ffffffffffffffffffffffffffffffffffffffff82169050919050565b6000612a7382612a48565b9050919050565b612a8381612a68565b8114612a8e57600080fd5b50565b600081359050612aa081612a7a565b92915050565b60008060408385031215612abd57612abc612815565b5b6000612acb85828601612a91565b925050602083013567ffffffffffffffff811115612aec57612aeb61281a565b5b612af885828601612937565b9150509250929050565b60008115159050919050565b612b1781612b02565b82525050565b6000602082019050612b326000830184612b0e565b92915050565b60038110612b4557600080fd5b50565b600081359050612b5781612b38565b92915050565b60008060008060808587031215612b7757612b76612815565b5b6000612b8587828801612a91565b9450506020612b9687828801612986565b9350506040612ba787828801612b48565b9250506060612bb887828801612986565b91505092959194509250565b600060208284031215612bda57612bd9612815565b5b6000612be884828501612986565b91505092915050565b600081519050919050565b60005b83811015612c1a578082015181840152602081019050612bff565b60008484015250505050565b6000612c3182612bf1565b612c3b8185612768565b9350612c4b818560208601612bfc565b612c5481612829565b840191505092915050565b60006080820190508181036000830152612c798187612c26565b9050612c886020830186612a1e565b612c956040830185612a1e565b612ca26060830184612a1e565b95945050505050565b60008060008060808587031215612cc557612cc4612815565b5b6000612cd387828801612a91565b945050602085013567ffffffffffffffff811115612cf457612cf361281a565b5b612d0087828801612937565b935050604085013567ffffffffffffffff811115612d2157612d2061281a565b5b612d2d87828801612937565b925050606085013567ffffffffffffffff811115612d4e57612d4d61281a565b5b612d5a87828801612937565b91505092959194509250565b600060208284031215612d7c57612d7b612815565b5b600082013567ffffffffffffffff811115612d9a57612d9961281a565b5b612da684828501612937565b91505092915050565b612db881612a68565b82525050565b6000602082019050612dd36000830184612daf565b92915050565b60006060820190508181036000830152612df38186612c26565b90508181036020830152612e078185612c26565b90508181036040830152612e1b8184612c26565b9050949350505050565b60006020820190508181036000830152612e3f8184612c26565b905092915050565b600060208284031215612e5d57612e5c612815565b5b6000612e6b84828501612a91565b91505092915050565b7f4e487b7100000000000000000000000000000000000000000000000000000000600052602160045260246000fd5b60038110612eb457612eb3612e74565b5b50565b6000819050612ec582612ea3565b919050565b6000612ed582612eb7565b9050919050565b612ee581612eca565b82525050565b6000604082019050612f006000830185612edc565b612f0d6020830184612a1e565b9392505050565b60008060408385031215612f2b57612f2a612815565b5b6000612f3985828601612a91565b9250506020612f4a85828601612986565b9150509250929050565b600080600060608486031215612f6d57612f6c612815565b5b600084013567ffffffffffffffff811115612f8b57612f8a61281a565b5b612f9786828701612937565b935050602084013567ffffffffffffffff811115612fb857612fb761281a565b5b612fc486828701612937565b925050604084013567ffffffffffffffff811115612fe557612fe461281a565b5b612ff186828701612937565b9150509250925092565b600080600080600060a0868803121561301757613016612815565b5b600061302588828901612986565b955050602086013567ffffffffffffffff8111156130465761304561281a565b5b61305288828901612937565b945050604061306388828901612986565b935050606061307488828901612986565b925050608061308588828901612986565b9150509295509295909350565b600080604083850312156130a9576130a8612815565b5b60006130b785828601612986565b92505060206130c885828601612a91565b9150509250929050565b7f536f6c6f207065726d697469646f20616c20636f6f7264696e61646f72000000600082015250565b6000613108601d83612768565b9150613113826130d2565b602082019050919050565b60006020820190508181036000830152613137816130fb565b9050919050565b7f456c206e6f6d627265206465206c61206576616c756163696f6e206e6f20707560008201527f6564652073657220766163696f00000000000000000000000000000000000000602082015250565b600061319a602d83612768565b91506131a58261313e565b604082019050919050565b600060208201905081810360008301526131c98161318d565b9050919050565b7f4e487b7100000000000000000000000000000000000000000000000000000000600052602260045260246000fd5b6000600282049050600182168061321757607f821691505b60208210810361322a576132296131d0565b5b50919050565b60008190508160005260206000209050919050565b60006020601f8301049050919050565b600082821b905092915050565b6000600883026132927fffffffffffffffffffffffffffffffffffffffffffffffffffffffffffffffff82613255565b61329c8683613255565b95508019841693508086168417925050509392505050565b6000819050919050565b60006132d96132d46132cf84612965565b6132b4565b612965565b9050919050565b6000819050919050565b6132f3836132be565b6133076132ff826132e0565b848454613262565b825550505050565b600090565b61331c61330f565b6133278184846132ea565b505050565b5b8181101561334b57613340600082613314565b60018101905061332d565b5050565b601f8211156133905761336181613230565b61336a84613245565b81016020851015613379578190505b61338d61338585613245565b83018261332c565b50505b505050565b600082821c905092915050565b60006133b360001984600802613395565b1980831691505092915050565b60006133cc83836133a2565b9150826002028217905092915050565b6133e582612bf1565b67ffffffffffffffff8111156133fe576133fd61283a565b5b61340882546131ff565b61341382828561334f565b600060209050601f8311600181146134465760008415613434578287015190505b61343e85826133c0565b8655506134a6565b601f19841661345486613230565b60005b8281101561347c57848901518255600182019150602085019450602081019050613457565b868310156134995784890151613495601f8916826133a2565b8355505b6001600288020188555050505b505050505050565b7f4e487b7100000000000000000000000000000000000000000000000000000000600052601160045260246000fd5b60006134e882612965565b91506134f383612965565b925082820390508181111561350b5761350a6134ae565b5b92915050565b7f536f6c6f207065726d697469646f20616c206f776e6572000000000000000000600082015250565b6000613547601783612768565b915061355282613511565b602082019050919050565b600060208201905081810360008301526135768161353a565b9050919050565b7f536f6c6f207065726d697469646f207369206c6120617369676e61747572612060008201527f6e6f206573746120636572726164610000000000000000000000000000000000602082015250565b60006135d9602f83612768565b91506135e48261357d565b604082019050919050565b60006020820190508181036000830152613608816135cc565b9050919050565b7f4573652070726f6665736f722079612065732070726f6665736f720000000000600082015250565b6000613645601b83612768565b91506136508261360f565b602082019050919050565b6000602082019050818103600083015261367481613638565b9050919050565b7f456c206e6f6d627265206e6f2070756564652073657220766163696f00000000600082015250565b60006136b1601c83612768565b91506136bc8261367b565b602082019050919050565b600060208201905081810360008301526136e0816136a4565b9050919050565b7f536f6c6f207065726d697469646f20616c2070726f6665736f72000000000000600082015250565b600061371d601a83612768565b9150613728826136e7565b602082019050919050565b6000602082019050818103600083015261374c81613710565b9050919050565b7f536f6c6f2073652070756564656e2063616c696669636172206120756e20616c60008201527f756d6e6f206d6174726963756c61646f2e000000000000000000000000000000602082015250565b60006137af603183612768565b91506137ba82613753565b604082019050919050565b600060208201905081810360008301526137de816137a2565b9050919050565b7f4e6f2073652070756564652063616c69666963617220756e61206576616c756160008201527f63696f6e20717565206e6f206578697374652e00000000000000000000000000602082015250565b6000613841603383612768565b915061384c826137e5565b604082019050919050565b6000602082019050818103600083015261387081613834565b9050919050565b7f4e6f2073652070756564652063616c69666963617220636f6e20756e61206e6f60008201527f7461207375706572696f722061206c61206d6178696d61207065726d6974696460208201527f612e000000000000000000000000000000000000000000000000000000000000604082015250565b60006138f9604283612768565b915061390482613877565b606082019050919050565b60006020820190508181036000830152613928816138ec565b9050919050565b7f536f6c6f2073652070756564656e206d6174726963756c617220616c756d6e6f60008201527f206e6f206d6174726963756c61646f732e000000000000000000000000000000602082015250565b600061398b603183612768565b91506139968261392f565b604082019050919050565b600060208201905081810360008301526139ba8161397e565b9050919050565b7f536f6c6f207065726d697469646f206120616c756d6e6f73206d61747269637560008201527f6c61646f73000000000000000000000000000000000000000000000000000000602082015250565b6000613a1d602583612768565b9150613a28826139c1565b604082019050919050565b60006020820190508181036000830152613a4c81613a10565b9050919050565b7f536f6c6f207065726d697469646f20616c2070726f6665736f72206f20636f6f60008201527f7264696e61646f72000000000000000000000000000000000000000000000000602082015250565b6000613aaf602883612768565b9150613aba82613a53565b604082019050919050565b60006020820190508181036000830152613ade81613aa2565b9050919050565b7f536f6c6f207065726d697469646f206120616c756d6e6f73206e6f206d61747260008201527f6963756c61646f73000000000000000000000000000000000000000000000000602082015250565b6000613b41602883612768565b9150613b4c82613ae5565b604082019050919050565b60006020820190508181036000830152613b7081613b34565b9050919050565b7f456c20696e64696365206465206c61206576616c756163696f6e206e6f20657860008201527f697374652e000000000000000000000000000000000000000000000000000000602082015250565b6000613bd3602583612768565b9150613bde82613b77565b604082019050919050565b60006020820190508181036000830152613c0281613bc6565b9050919050565b7f4e487b7100000000000000000000000000000000000000000000000000000000600052603260045260246000fd5b7f456c20444e49206e6f2070756564652073657220766163696f00000000000000600082015250565b6000613c6e601983612768565b9150613c7982613c38565b602082019050919050565b60006020820190508181036000830152613c9d81613c61565b9050919050565b600081905092915050565b6000613cba82612bf1565b613cc48185613ca4565b9350613cd4818560208601612bfc565b80840191505092915050565b6000613cec8284613caf565b915081905092915050565b6000613d0282612965565b91507fffffffffffffffffffffffffffffffffffffffffffffffffffffffffffffffff8203613d3457613d336134ae565b5b600182019050919050565b6000613d4a82612965565b9150613d5583612965565b9250828202613d6381612965565b91508282048414831517613d7a57613d796134ae565b5b5092915050565b7f4e487b7100000000000000000000000000000000000000000000000000000000600052601260045260246000fd5b6000613dbb82612965565b9150613dc683612965565b925082613dd657613dd5613d81565b5b828204905092915050565b6000613dec82612965565b9150613df783612965565b9250828201905080821115613e0f57613e0e6134ae565b5b9291505056fea26469706673582212203357847f86f293a90bf257516b24c682bb76e0c3a97ba5efa248f469dda4f5c064736f6c63430008110033",
  "immutableReferences": {},
  "source": "// SPDX-License-Identifier: UNLICENSED\npragma solidity ^0.8.16;\n\n/**\n * Contrato Asignatura que representa una asignatura de la carrera.\n *\n * Version Full\n */\ncontract Asignatura {\n    /// Version 2022 Full\n    string public version = \"2022 Full\";\n    /**\n     * address del usuario que ha desplegado el contrato.\n     * El contrato lo despliega el owner.\n     */\n    address public owner;\n\n    /// Nombre de la asignatura\n    string public nombre;\n\n    /// Curso academico\n    string public curso;\n\n    /// Coordinador de la asigantura\n    address public coordinador;\n\n    /// Estado de la asignatura\n    bool public cerrada;\n\n    /// Acceder al nombre de un profesor dada su direccin\n    mapping (address => string) public datosProfesor;\n\n    /// Array con las direcciones de los profesores aadidos\n    address[] public profesores;\n\n    /// Datos de un alumno.\n    struct DatosAlumno {\n        string nombre;\n        string dni;\n        string email;\n    }\n    /// Acceder a los datos de un alumno dada su direccion.\n    mapping(address => DatosAlumno) public datosAlumno;\n\n    /**\n     * Valores de DNI usados\n     * Clave: DNI\n     * Valor: direccin del alumno con ese DNI\n     */\n    mapping (string => address) public dniUsados;\n\n    // Array con las direcciones de los alumnos matriculados.\n    address[] public matriculas;\n\n    /**\n     * Datos de una evaluacion.\n     */\n    struct Evaluacion {\n        string nombre;\n        uint256 fecha;\n        uint256 porcentaje;\n        uint256 minimo;\n    }\n\n    /// Evaluaciones de la asignatura.\n    Evaluacion[] public evaluaciones;\n\n    /// Tipos de notas: sin usar, no presentado, y nota normal entre 0 y 1000.\n    enum TipoNota { Empty,NP,Normal }\n\n    /**\n     * Datos de una nota.\n     * La calificacion esta multiplicada por 100 porque no hay decimales.\n     */\n    struct Nota {\n        TipoNota tipo;\n        uint256 calificacion;\n    }\n\n    // Dada la direccion de un alumno, y el indice de la evaluacion, devuelve\n    // la nota del alumno.\n    mapping(address => mapping(uint256 => Nota)) public calificacionesAlumno;\n\n    // Dado el indice de la evaluacion y la direccion de un alumno, devuelve\n    // la nota del alumno.\n    mapping(uint256 => mapping(address => Nota)) public calificacionesEvaluacion;\n\n    /// Error usado para indicar que un DNI esta duplicado\n    error DNIDuplicadoError(string dni);\n\n    /**\n     * Constructor.\n     *\n     * @param _nombre Nombre de la asignatura.\n     * @param _curso Curso academico.\n     */\n    constructor(string memory _nombre, string memory _curso) {\n        require(bytes(_nombre).length != 0,\"El nombre de la asignatura no puede ser vacio\");\n        require(bytes(_curso).length != 0,\"El curso academico de la asignatura no puede ser vacio\");\n        \n        owner = msg.sender;\n        nombre = _nombre;\n        curso = _curso;\n    }\n\n    /**\n     * Asignar la direccin del usuario coordinador\n     *\n     * @param addr Direccin del usuario coordinador\n     */\n    function setCoordinador(address addr) soloOwner soloAbierta public {\n        coordinador = addr;\n    }\n\n    /**\n     *Cerrar la asignatura\n     */\n    function cerrar() soloCoordinador public {\n        cerrada = true;\n    }\n\n    /**\n     * Aadir un profesor nuevo\n     *\n     * Impedir que se pueda meter un nombre vaco\n     *\n     * @param _addr Direccin del profesor\n     * @param _nombre Nombre del profesor\n     */\n    function addProfesor(address _addr, string memory _nombre) soloOwner soloAbierta public{\n        require(bytes(datosProfesor[_addr]).length == 0, \"Ese profesor ya es profesor\");\n        require(bytes(_nombre).length != 0, \"El nombre no puede ser vacio\");\n        \n        datosProfesor[_addr] = _nombre;\n        profesores.push(_addr);\n    }\n\n    /**\n     * El numero de profesores aadidos\n     *\n     * @return Numero de profesores aadidos\n     */\n    function profesoresLength() public view returns(uint){\n        return profesores.length;\n    }\n\n    /**\n     * Los alumnos pueden automatricularse con el metodo automatricula.\n     *\n     * Impedir que se pueda meter un nombre vacio.\n     *\n     * El valor del DNI debe ser unico\n     *\n     * @param _nombre El nombre del alumno.\n     * @param _dni El DNI del alumno.\n     * @param _email El email del alumno.\n     */\n    function automatricula(string memory _nombre, string memory _dni, string memory _email) public soloNoMatriculados soloAbierta{\n        _matricular(msg.sender, _nombre, _dni, _email);\n    }\n\n    /**\n     * El owner puede matricular alumnos.\n     *\n     * Impedir que se pueda poner un nombre o DNI vacio.\n     *\n     * El valor del DNI debe ser unico\n     *\n     * @param _addr Direccion del alumno.\n     * @param _nombre El nombre del alumno.\n     * @param _dni El DNI del alumno.\n     * @param _email El email del alumno.\n     */\n    function matricular(address _addr, string memory _nombre, string memory _dni, string memory _email) soloOwner soloAbierta public{\n        require(!estaMatriculado(_addr), \"Solo se pueden matricular alumno no matriculados.\");\n        _matricular(_addr, _nombre, _dni, _email);\n    }\n\n    function _matricular(address _addr, string memory _nombre, string memory _dni, string memory _email) soloNoMatriculados soloAbierta private {\n        require(bytes(_nombre).length != 0, \"El nombre no puede ser vacio\");\n        require(bytes(_dni).length != 0, \"El DNI no puede ser vacio\");\n\n        if(dniUsados[_dni] != address(0x0)){\n            revert DNIDuplicadoError({ dni: _dni});\n        }\n\n        DatosAlumno memory datos = DatosAlumno(_nombre, _dni, _email);\n\n        datosAlumno[_addr] = datos;\n\n        dniUsados[_dni] = _addr;\n\n        matriculas.push(_addr);\n    }\n\n    /**\n     * El numero de alumnos matriculados.\n     *\n     * @return El numero de alumnos matriculados.\n     */\n    function matriculasLength() public view returns (uint256) {\n        return matriculas.length;\n    }\n\n    /**\n     * Permite a un alumno obtener sus propios datos.\n     *\n     * @return _nombre El nombre del alumno que invoca el metodo.\n     * @return _dni El DNI del alumno que invoca el metodo.\n     * @return _email El email del alumno que invoca el metodo.\n     */\n    function quienSoy() public view soloMatriculados returns (string memory _nombre, string memory _dni, string memory _email){\n        DatosAlumno memory datos = datosAlumno[msg.sender];\n        _nombre = datos.nombre;\n        _dni = datos.dni;\n        _email = datos.email;\n    }\n\n    /**\n     * Crear una prueba de evaluacion de la asignatura. Por ejemplo, el primer parcial, o la practica 3.\n     *\n     * Las evaluaciones se meteran en el array evaluaciones, y nos referiremos a ellas por su posicion en el\n     array.\n     *\n     * @param _nombre El nombre de la evaluacion.\n     * @param _fecha La fecha de evaluacion (segundos desde el 1/1/1970).\n     * @param _porcentaje El porcentaje de puntos que proporciona a la nota final.\n     * @param _minimo Nota minima necesaria para aprobar.\n     *\n     * @return La posicion en el array evaluaciones,\n     */\n    function creaEvaluacion(string memory _nombre, uint256 _fecha, uint256 _porcentaje, uint256 _minimo) public soloCoordinador returns (uint256) {\n        require(bytes(_nombre).length != 0, \"El nombre de la evaluacion no puede ser vacio\");\n        \n        evaluaciones.push(Evaluacion(_nombre, _fecha, _porcentaje, _minimo));\n        return evaluaciones.length - 1;\n    }\n\n    /**\n     * Edita una prueba de evaluacion de la asignatura.\n     *\n     * @param _posicion Posicion en el array de evaluaciones.\n     * @param _nombre El nombre de la evaluacion.\n     * @param _fecha La fecha de evaluacion (segundos desde el 1/1/1970).\n     * @param _porcentaje El porcentaje de puntos que proporciona a la nota final.\n     * @param _minimo Nota minima necesaria para aprobar.\n     *\n     * @return La posicion en el array evaluaciones,\n     */\n    function editaEvaluacion(uint256 _posicion, string memory _nombre, uint256 _fecha, uint256 _porcentaje, uint256 _minimo) public soloCoordinador returns (uint256) {\n        require(bytes(_nombre).length != 0, \"El nombre de la evaluacion no puede ser vacio\");\n        \n        //delete evaluaciones[_posicion];\n        evaluaciones[_posicion] = Evaluacion(_nombre, _fecha, _porcentaje, _minimo);\n        return _posicion;\n    }\n\n    /**\n     * El numero de evaluaciones creadas.\n     *\n     * @return El numero de evaluaciones creadas.\n     */\n    function evaluacionesLength() public view returns (uint256) {\n        return evaluaciones.length;\n    }\n\n    /**\n     * Poner la nota de un alumno en una evaluacion.\n     *\n     * @param alumno La direccion del alumno.\n     * @param evaluacion El indice de una evaluacion en el array evaluaciones.\n     * @param tipo Tipo de nota.\n     * @param calificacion La calificacion, multipilicada por 100 porque no hay decimales.\n     */\n    function califica(address alumno, uint256 evaluacion, TipoNota tipo, uint256 calificacion) public soloAbierta soloProfesor {\n        require(estaMatriculado(alumno), \"Solo se pueden calificar a un alumno matriculado.\");\n        require(evaluacion < evaluaciones.length, \"No se puede calificar una evaluacion que no existe.\");\n        require(calificacion <= 1000, \"No se puede calificar con una nota superior a la maxima permitida.\");\n        \n        Nota memory nota = Nota(tipo, calificacion);\n\n        calificacionesAlumno[alumno][evaluacion] = nota;\n        calificacionesEvaluacion[evaluacion][alumno] = nota;\n    }\n\n    /**\n     * Devuelve el tipo de nota y la calificacion que ha sacado el alumno que invoca el metodo en la evaluacion\n     pasada como parametro.\n     *\n     * @param evaluacion Indice de una evaluacion en el array de evaluaciones\n     *\n     * @return tipo El tipo de nota que ha sacado el alumno.\n     * @return calificacion La calificacion que ha sacado el alumno.\n     */\n    function miNota(uint256 evaluacion) public view soloMatriculados returns (TipoNota tipo, uint256 calificacion){\n        require(evaluacion < evaluaciones.length, \"El indice de la evaluacion no existe.\");\n\n        Nota memory nota = calificacionesAlumno[msg.sender][evaluacion];\n\n        tipo = nota.tipo;\n        calificacion = nota.calificacion;\n    }\n\n    /**\n     * Devuelve la nota final del alumno que llama a este metodo\n     *\n     * Si el tipo de nota de alguna evaluacion es Empty, este metodo devuelve (Empty, 0)\n     * Si todas son NP, devuelve (NP, 0)\n     * En otros casos devuelve la nota final aplicando porcentajes adecuados\n     * Si es superior a 499 y hay alguna nota NP, entonce devuelve maximo NP\n     *\n     * @return tipo Tipo de nota\n     * @return calificacion Calificacion del alumno\n     */\n    function miNotaFinal() soloMatriculados public view returns (TipoNota tipo, uint256 calificacion){\n        return _notaFinal(msg.sender);\n    }\n\n    /**\n     * Devuelve la nota final del alumno indicado\n     *\n     * @param _addr Direccion del alumno\n     * \n     * @return tipo Tipo de nota\n     * @return calificacion Calificacion del alumno\n     */\n    function notaFinal(address _addr) soloCoordinadorOProfesor public view returns (TipoNota tipo, uint256 calificacion){\n        return _notaFinal(_addr);\n    }\n\n    function _notaFinal(address _addr) private view returns (TipoNota tipo, uint256 calificacion){\n        tipo = TipoNota.NP;\n\n        for (uint i = 0; i < evaluaciones.length; i++){\n            if(calificacionesAlumno[_addr][i].tipo == TipoNota.Empty){\n                return (TipoNota.Empty, 0);\n            }\n            if(calificacionesAlumno[_addr][i].tipo == TipoNota.Normal){\n                tipo = TipoNota.Normal;\n                continue;\n            }\n        }\n\n        if(tipo == TipoNota.NP){\n            return (tipo, 0);\n        }\n\n        bool suspenso = false;\n        uint256 nota = 0;\n\n        for(uint i = 0; i < evaluaciones.length; i++){\n            if(calificacionesAlumno[_addr][i].calificacion < evaluaciones[i].minimo){\n                suspenso = true;\n            }\n            nota += calificacionesAlumno[_addr][i].calificacion * evaluaciones[i].porcentaje / 100;\n        }\n\n        if(suspenso && nota > 499) {\n            nota = 499;\n        }\n\n        tipo = TipoNota.Normal;\n        calificacion = nota;\n    }\n\n    /**\n     * Consulta si una direccion pertenece a un alumno matriculado.\n     *\n     * @param alumno La direccion de un alumno.\n     *\n     * @return true si es una alumno matriculado.\n     */\n    function estaMatriculado(address alumno) private view returns (bool) {\n        string memory _nombre = datosAlumno[alumno].nombre;\n\n        return bytes(_nombre).length != 0;\n    }\n\n    /**\n     * Modificador para que una funcion solo la pueda ejecutar el owner.\n     *\n     * Se usa en setCoordinador y en addProfesor.\n     */\n    modifier soloOwner() {\n        require(msg.sender == owner, \"Solo permitido al owner\");\n        _;\n    }\n\n    /**\n     * Modificador para que una funcion solo la pueda ejecutar el coordinador.\n     *\n     * Se usa en cerrar y en creaEvaluacion.\n     */\n    modifier soloCoordinador() {\n        require(msg.sender == coordinador, \"Solo permitido al coordinador\");\n        _;\n    }\n\n    /**\n     * Modificador para que una funcion solo la pueda ejecutar el profesor.\n     *\n     * Se usa en califica.\n     */\n    modifier soloProfesor() {\n        string memory _nombre = datosProfesor[msg.sender];\n        require(bytes(_nombre).length != 0, \"Solo permitido al profesor\");\n        _;\n    }\n\n    /**\n     * Modificador para que una funcion solo la pueda ejecutar el profesor o el coordinador.\n     *\n     * Se usa en notaFinal.\n     */\n    modifier soloCoordinadorOProfesor() {\n        string memory _nombre = datosProfesor[msg.sender];\n        require(bytes(_nombre).length != 0 || msg.sender == coordinador, \"Solo permitido al profesor o coordinador\");\n        _;\n    }\n\n    /**\n     * Modificador para que una funcion solo la pueda ejecutar un alumno matriculado.\n     */\n    modifier soloMatriculados() {\n        require(estaMatriculado(msg.sender), \"Solo permitido a alumnos matriculados\");\n        _;\n    }\n    /**\n     * Modificador para que una funcion solo la pueda ejecutar un alumno no matriculado aun.\n     */\n    modifier soloNoMatriculados() {\n        require(!estaMatriculado(msg.sender), \"Solo permitido a alumnos no matriculados\");\n        _;\n    }\n\n    /**\n     * Modificador para que una funcion solo la pueda ejecutar si la asigantura no esta cerrada.\n     *\n     * Se usa en csetCoordinador, addProfesor, automatricula, creaEvaluacion y califica.\n     */\n    modifier soloAbierta() {\n        require(!cerrada, \"Solo permitido si la asignatura no esta cerrada\");\n        _;\n    }\n\n    /**\n     * No se permite la recepcion de dinero.\n     */\n    receive() external payable {\n        revert(\"No se permite la recepcion de dinero.\");\n    }\n}\n",
  "sourcePath": "/home/javier/Escritorio/BCDA/Practicas/ProyectoFinal/DAppAsignatura/truffle/contracts/Asignatura.sol",
  "compiler": {
    "name": "solc",
    "version": "0.8.17+commit.8df45f5f.Emscripten.clang"
  },
  "schemaVersion": "3.4.11",
  "updatedAt": "2023-01-16T22:32:54.489Z",
  "networkType": "ethereum",
  "devdoc": {
    "kind": "dev",
    "methods": {
      "addProfesor(address,string)": {
        "params": {
          "_addr": "Direccin del profesor",
          "_nombre": "Nombre del profesor"
        }
      },
      "automatricula(string,string,string)": {
        "params": {
          "_dni": "El DNI del alumno.",
          "_email": "El email del alumno.",
          "_nombre": "El nombre del alumno."
        }
      },
      "califica(address,uint256,uint8,uint256)": {
        "params": {
          "alumno": "La direccion del alumno.",
          "calificacion": "La calificacion, multipilicada por 100 porque no hay decimales.",
          "evaluacion": "El indice de una evaluacion en el array evaluaciones.",
          "tipo": "Tipo de nota."
        }
      },
      "constructor": {
        "params": {
          "_curso": "Curso academico.",
          "_nombre": "Nombre de la asignatura."
        }
      },
      "creaEvaluacion(string,uint256,uint256,uint256)": {
        "params": {
          "_fecha": "La fecha de evaluacion (segundos desde el 1/1/1970).",
          "_minimo": "Nota minima necesaria para aprobar.",
          "_nombre": "El nombre de la evaluacion.",
          "_porcentaje": "El porcentaje de puntos que proporciona a la nota final."
        },
        "returns": {
          "_0": "La posicion en el array evaluaciones,"
        }
      },
      "editaEvaluacion(uint256,string,uint256,uint256,uint256)": {
        "params": {
          "_fecha": "La fecha de evaluacion (segundos desde el 1/1/1970).",
          "_minimo": "Nota minima necesaria para aprobar.",
          "_nombre": "El nombre de la evaluacion.",
          "_porcentaje": "El porcentaje de puntos que proporciona a la nota final.",
          "_posicion": "Posicion en el array de evaluaciones."
        },
        "returns": {
          "_0": "La posicion en el array evaluaciones,"
        }
      },
      "evaluacionesLength()": {
        "returns": {
          "_0": "El numero de evaluaciones creadas."
        }
      },
      "matricular(address,string,string,string)": {
        "params": {
          "_addr": "Direccion del alumno.",
          "_dni": "El DNI del alumno.",
          "_email": "El email del alumno.",
          "_nombre": "El nombre del alumno."
        }
      },
      "matriculasLength()": {
        "returns": {
          "_0": "El numero de alumnos matriculados."
        }
      },
      "miNota(uint256)": {
        "params": {
          "evaluacion": "Indice de una evaluacion en el array de evaluaciones"
        },
        "returns": {
          "calificacion": "La calificacion que ha sacado el alumno.",
          "tipo": "El tipo de nota que ha sacado el alumno."
        }
      },
      "miNotaFinal()": {
        "returns": {
          "calificacion": "Calificacion del alumno",
          "tipo": "Tipo de nota"
        }
      },
      "notaFinal(address)": {
        "params": {
          "_addr": "Direccion del alumno "
        },
        "returns": {
          "calificacion": "Calificacion del alumno",
          "tipo": "Tipo de nota"
        }
      },
      "profesoresLength()": {
        "returns": {
          "_0": "Numero de profesores aadidos"
        }
      },
      "quienSoy()": {
        "returns": {
          "_dni": "El DNI del alumno que invoca el metodo.",
          "_email": "El email del alumno que invoca el metodo.",
          "_nombre": "El nombre del alumno que invoca el metodo."
        }
      },
      "setCoordinador(address)": {
        "params": {
          "addr": "Direccin del usuario coordinador"
        }
      }
    },
    "version": 1
  },
  "userdoc": {
    "errors": {
      "DNIDuplicadoError(string)": [
        {
          "notice": "Error usado para indicar que un DNI esta duplicado"
        }
      ]
    },
    "kind": "user",
    "methods": {
      "addProfesor(address,string)": {
        "notice": "Aadir un profesor nuevo Impedir que se pueda meter un nombre vaco"
      },
      "automatricula(string,string,string)": {
        "notice": "Los alumnos pueden automatricularse con el metodo automatricula. Impedir que se pueda meter un nombre vacio. El valor del DNI debe ser unico"
      },
      "califica(address,uint256,uint8,uint256)": {
        "notice": "Poner la nota de un alumno en una evaluacion."
      },
      "cerrada()": {
        "notice": "Estado de la asignatura"
      },
      "cerrar()": {
        "notice": "Cerrar la asignatura"
      },
      "constructor": {
        "notice": "Constructor."
      },
      "coordinador()": {
        "notice": "Coordinador de la asigantura"
      },
      "creaEvaluacion(string,uint256,uint256,uint256)": {
        "notice": "Crear una prueba de evaluacion de la asignatura. Por ejemplo, el primer parcial, o la practica 3. Las evaluaciones se meteran en el array evaluaciones, y nos referiremos a ellas por su posicion en el array."
      },
      "curso()": {
        "notice": "Curso academico"
      },
      "datosAlumno(address)": {
        "notice": "Acceder a los datos de un alumno dada su direccion."
      },
      "datosProfesor(address)": {
        "notice": "Acceder al nombre de un profesor dada su direccin"
      },
      "dniUsados(string)": {
        "notice": "Valores de DNI usados Clave: DNI Valor: direccin del alumno con ese DNI"
      },
      "editaEvaluacion(uint256,string,uint256,uint256,uint256)": {
        "notice": "Edita una prueba de evaluacion de la asignatura."
      },
      "evaluaciones(uint256)": {
        "notice": "Evaluaciones de la asignatura."
      },
      "evaluacionesLength()": {
        "notice": "El numero de evaluaciones creadas."
      },
      "matricular(address,string,string,string)": {
        "notice": "El owner puede matricular alumnos. Impedir que se pueda poner un nombre o DNI vacio. El valor del DNI debe ser unico"
      },
      "matriculasLength()": {
        "notice": "El numero de alumnos matriculados."
      },
      "miNota(uint256)": {
        "notice": "Devuelve el tipo de nota y la calificacion que ha sacado el alumno que invoca el metodo en la evaluacion pasada como parametro."
      },
      "miNotaFinal()": {
        "notice": "Devuelve la nota final del alumno que llama a este metodo Si el tipo de nota de alguna evaluacion es Empty, este metodo devuelve (Empty, 0) Si todas son NP, devuelve (NP, 0) En otros casos devuelve la nota final aplicando porcentajes adecuados Si es superior a 499 y hay alguna nota NP, entonce devuelve maximo NP"
      },
      "nombre()": {
        "notice": "Nombre de la asignatura"
      },
      "notaFinal(address)": {
        "notice": "Devuelve la nota final del alumno indicado"
      },
      "owner()": {
        "notice": "address del usuario que ha desplegado el contrato. El contrato lo despliega el owner."
      },
      "profesores(uint256)": {
        "notice": "Array con las direcciones de los profesores aadidos"
      },
      "profesoresLength()": {
        "notice": "El numero de profesores aadidos"
      },
      "quienSoy()": {
        "notice": "Permite a un alumno obtener sus propios datos."
      },
      "setCoordinador(address)": {
        "notice": "Asignar la direccin del usuario coordinador"
      },
      "version()": {
        "notice": "Version 2022 Full"
      }
    },
    "notice": "Contrato Asignatura que representa una asignatura de la carrera. Version Full",
    "version": 1
  }
}